{
  "_format": "hh-sol-artifact-1",
  "contractName": "Vote",
  "sourceName": "contracts/Lock.sol",
  "abi": [
    {
      "anonymous": false,
      "inputs": [
        {
          "indexed": false,
          "internalType": "address",
          "name": "Voter",
          "type": "address"
        },
        {
          "indexed": false,
          "internalType": "address",
          "name": "Candidate",
          "type": "address"
        },
        {
          "indexed": false,
          "internalType": "uint256",
          "name": "timestamp",
          "type": "uint256"
        },
        {
          "indexed": false,
          "internalType": "string",
          "name": "Voterid",
          "type": "string"
        },
        {
          "indexed": false,
          "internalType": "string",
          "name": "CandidateAadhar",
          "type": "string"
        }
      ],
      "name": "Vote",
      "type": "event"
    },
    {
      "inputs": [
        {
          "internalType": "address payable",
          "name": "Candidate",
          "type": "address"
        },
        {
          "internalType": "string",
          "name": "Voterid",
          "type": "string"
        },
        {
          "internalType": "string",
          "name": "CandidateAadhar",
          "type": "string"
        }
      ],
      "name": "addToBlockChain",
      "outputs": [],
      "stateMutability": "nonpayable",
      "type": "function"
    },
    {
      "inputs": [],
      "name": "gatAllVotes",
      "outputs": [
        {
          "components": [
            {
              "internalType": "address",
              "name": "Voter",
              "type": "address"
            },
            {
              "internalType": "address",
              "name": "Candidate",
              "type": "address"
            },
            {
              "internalType": "uint256",
              "name": "timestamp",
              "type": "uint256"
            },
            {
              "internalType": "string",
              "name": "Voterid",
              "type": "string"
            },
            {
              "internalType": "string",
              "name": "CandidateAadhar",
              "type": "string"
            }
          ],
          "internalType": "struct Vote.VoteStruct[]",
          "name": "",
          "type": "tuple[]"
        }
      ],
      "stateMutability": "view",
      "type": "function"
    },
    {
      "inputs": [],
      "name": "getVoteCount",
      "outputs": [
        {
          "internalType": "uint256",
          "name": "",
          "type": "uint256"
        }
      ],
      "stateMutability": "view",
      "type": "function"
    }
  ],
  "bytecode": "0x608060405234801561001057600080fd5b50610bf7806100206000396000f3fe608060405234801561001057600080fd5b50600436106100415760003560e01c8063033f2a4b146100465780636469aa7d14610064578063e7b3387c14610080575b600080fd5b61004e61009e565b60405161005b9190610764565b60405180910390f35b61007e6004803603810190610079919061090d565b6102d7565b005b610088610486565b60405161009591906109a7565b60405180910390f35b60606001805480602002602001604051908101604052809291908181526020016000905b828210156102ce57838290600052602060002090600502016040518060a00160405290816000820160009054906101000a900473ffffffffffffffffffffffffffffffffffffffff1673ffffffffffffffffffffffffffffffffffffffff1673ffffffffffffffffffffffffffffffffffffffff1681526020016001820160009054906101000a900473ffffffffffffffffffffffffffffffffffffffff1673ffffffffffffffffffffffffffffffffffffffff1673ffffffffffffffffffffffffffffffffffffffff168152602001600282015481526020016003820180546101ab906109f1565b80601f01602080910402602001604051908101604052809291908181526020018280546101d7906109f1565b80156102245780601f106101f957610100808354040283529160200191610224565b820191906000526020600020905b81548152906001019060200180831161020757829003601f168201915b5050505050815260200160048201805461023d906109f1565b80601f0160208091040260200160405190810160405280929190818152602001828054610269906109f1565b80156102b65780601f1061028b576101008083540402835291602001916102b6565b820191906000526020600020905b81548152906001019060200180831161029957829003601f168201915b505050505081525050815260200190600101906100c2565b50505050905090565b60016000808282546102e99190610a52565b9250508190555060016040518060a001604052803373ffffffffffffffffffffffffffffffffffffffff1681526020018573ffffffffffffffffffffffffffffffffffffffff16815260200142815260200184815260200183815250908060018154018082558091505060019003906000526020600020906005020160009091909190915060008201518160000160006101000a81548173ffffffffffffffffffffffffffffffffffffffff021916908373ffffffffffffffffffffffffffffffffffffffff16021790555060208201518160010160006101000a81548173ffffffffffffffffffffffffffffffffffffffff021916908373ffffffffffffffffffffffffffffffffffffffff16021790555060408201518160020155606082015181600301908051906020019061042292919061048f565b50608082015181600401908051906020019061043f92919061048f565b5050507f76ea786652f0fcde05ac24325918c31f56fb418cecbd1a28876fc7c96ef4994a3384428585604051610479959493929190610b60565b60405180910390a1505050565b60008054905090565b82805461049b906109f1565b90600052602060002090601f0160209004810192826104bd5760008555610504565b82601f106104d657805160ff1916838001178555610504565b82800160010185558215610504579182015b828111156105035782518255916020019190600101906104e8565b5b5090506105119190610515565b5090565b5b8082111561052e576000816000905550600101610516565b5090565b600081519050919050565b600082825260208201905092915050565b6000819050602082019050919050565b600073ffffffffffffffffffffffffffffffffffffffff82169050919050565b60006105898261055e565b9050919050565b6105998161057e565b82525050565b6000819050919050565b6105b28161059f565b82525050565b600081519050919050565b600082825260208201905092915050565b60005b838110156105f25780820151818401526020810190506105d7565b83811115610601576000848401525b50505050565b6000601f19601f8301169050919050565b6000610623826105b8565b61062d81856105c3565b935061063d8185602086016105d4565b61064681610607565b840191505092915050565b600060a0830160008301516106696000860182610590565b50602083015161067c6020860182610590565b50604083015161068f60408601826105a9565b50606083015184820360608601526106a78282610618565b915050608083015184820360808601526106c18282610618565b9150508091505092915050565b60006106da8383610651565b905092915050565b6000602082019050919050565b60006106fa82610532565b610704818561053d565b9350836020820285016107168561054e565b8060005b85811015610752578484038952815161073385826106ce565b945061073e836106e2565b925060208a0199505060018101905061071a565b50829750879550505050505092915050565b6000602082019050818103600083015261077e81846106ef565b905092915050565b6000604051905090565b600080fd5b600080fd5b60006107a58261055e565b9050919050565b6107b58161079a565b81146107c057600080fd5b50565b6000813590506107d2816107ac565b92915050565b600080fd5b600080fd5b7f4e487b7100000000000000000000000000000000000000000000000000000000600052604160045260246000fd5b61081a82610607565b810181811067ffffffffffffffff82111715610839576108386107e2565b5b80604052505050565b600061084c610786565b90506108588282610811565b919050565b600067ffffffffffffffff821115610878576108776107e2565b5b61088182610607565b9050602081019050919050565b82818337600083830152505050565b60006108b06108ab8461085d565b610842565b9050828152602081018484840111156108cc576108cb6107dd565b5b6108d784828561088e565b509392505050565b600082601f8301126108f4576108f36107d8565b5b813561090484826020860161089d565b91505092915050565b60008060006060848603121561092657610925610790565b5b6000610934868287016107c3565b935050602084013567ffffffffffffffff81111561095557610954610795565b5b610961868287016108df565b925050604084013567ffffffffffffffff81111561098257610981610795565b5b61098e868287016108df565b9150509250925092565b6109a18161059f565b82525050565b60006020820190506109bc6000830184610998565b92915050565b7f4e487b7100000000000000000000000000000000000000000000000000000000600052602260045260246000fd5b60006002820490506001821680610a0957607f821691505b60208210811415610a1d57610a1c6109c2565b5b50919050565b7f4e487b7100000000000000000000000000000000000000000000000000000000600052601160045260246000fd5b6000610a5d8261059f565b9150610a688361059f565b9250827fffffffffffffffffffffffffffffffffffffffffffffffffffffffffffffffff03821115610a9d57610a9c610a23565b5b828201905092915050565b610ab18161057e565b82525050565b6000819050919050565b6000610adc610ad7610ad28461055e565b610ab7565b61055e565b9050919050565b6000610aee82610ac1565b9050919050565b6000610b0082610ae3565b9050919050565b610b1081610af5565b82525050565b600082825260208201905092915050565b6000610b32826105b8565b610b3c8185610b16565b9350610b4c8185602086016105d4565b610b5581610607565b840191505092915050565b600060a082019050610b756000830188610aa8565b610b826020830187610b07565b610b8f6040830186610998565b8181036060830152610ba18185610b27565b90508181036080830152610bb58184610b27565b9050969550505050505056fea2646970667358221220c7ef8593441d296cc5c613d5e646226b05d448c387f656e4b17124eb847b28f264736f6c63430008090033",
  "linkReferences": {},
  "deployedLinkReferences": {}
}