{
  "_format": "hh-sol-artifact-1",
  "contractName": "Votes",
  "sourceName": "contracts/Votes.sol",
  "abi": [
    {
      "inputs": [
        {
          "internalType": "bytes32[]",
          "name": "candidateDetails",
          "type": "bytes32[]"
        }
      ],
      "stateMutability": "nonpayable",
      "type": "constructor"
    },
    {
      "inputs": [],
      "name": "Admin",
      "outputs": [
        {
          "internalType": "address",
          "name": "",
          "type": "address"
        }
      ],
      "stateMutability": "view",
      "type": "function"
    },
    {
      "inputs": [
        {
          "internalType": "uint256",
          "name": "",
          "type": "uint256"
        }
      ],
      "name": "candidates",
      "outputs": [
        {
          "internalType": "bytes32",
          "name": "name",
          "type": "bytes32"
        },
        {
          "internalType": "uint256",
          "name": "CandidateAadhar",
          "type": "uint256"
        },
        {
          "internalType": "uint256",
          "name": "voteCount",
          "type": "uint256"
        }
      ],
      "stateMutability": "view",
      "type": "function"
    },
    {
      "inputs": [
        {
          "internalType": "address",
          "name": "voter",
          "type": "address"
        }
      ],
      "name": "giveRightToVote",
      "outputs": [],
      "stateMutability": "nonpayable",
      "type": "function"
    },
    {
      "inputs": [
        {
          "internalType": "uint256",
          "name": "candidate",
          "type": "uint256"
        }
      ],
      "name": "vote",
      "outputs": [],
      "stateMutability": "nonpayable",
      "type": "function"
    },
    {
      "inputs": [
        {
          "internalType": "address",
          "name": "",
          "type": "address"
        }
      ],
      "name": "voters",
      "outputs": [
        {
          "internalType": "uint256",
          "name": "vote",
          "type": "uint256"
        },
        {
          "internalType": "bool",
          "name": "Casted",
          "type": "bool"
        },
        {
          "internalType": "uint256",
          "name": "weight",
          "type": "uint256"
        },
        {
          "internalType": "uint256",
          "name": "VoterAadhar",
          "type": "uint256"
        }
      ],
      "stateMutability": "view",
      "type": "function"
    },
    {
      "inputs": [
        {
          "internalType": "bytes32",
          "name": "candidate",
          "type": "bytes32"
        }
      ],
      "name": "votesPerCandidate",
      "outputs": [
        {
          "internalType": "uint256",
          "name": "count",
          "type": "uint256"
        }
      ],
      "stateMutability": "view",
      "type": "function"
    },
    {
      "inputs": [],
      "name": "winnerName",
      "outputs": [
        {
          "internalType": "bytes32",
          "name": "winnername",
          "type": "bytes32"
        }
      ],
      "stateMutability": "view",
      "type": "function"
    },
    {
      "inputs": [],
      "name": "winnervotecount",
      "outputs": [
        {
          "internalType": "uint256",
          "name": "count_win",
          "type": "uint256"
        }
      ],
      "stateMutability": "view",
      "type": "function"
    },
    {
      "inputs": [],
      "name": "winningCandidate",
      "outputs": [
        {
          "internalType": "uint256",
          "name": "winner",
          "type": "uint256"
        }
      ],
      "stateMutability": "view",
      "type": "function"
    }
  ],
  "bytecode": "0x60806040523480156200001157600080fd5b50604051620010dd380380620010dd833981810160405281019062000037919062000355565b33600260006101000a81548173ffffffffffffffffffffffffffffffffffffffff021916908373ffffffffffffffffffffffffffffffffffffffff1602179055506001806000600260009054906101000a900473ffffffffffffffffffffffffffffffffffffffff1673ffffffffffffffffffffffffffffffffffffffff1673ffffffffffffffffffffffffffffffffffffffff1681526020019081526020016000206002018190555060005b8151811015620001895760006040518060600160405280848481518110620001115762000110620003a6565b5b6020026020010151815260200160008152602001600081525090806001815401808255809150506001900390600052602060002090600302016000909190919091506000820151816000015560208201518160010155604082015181600201555050808062000180906200040e565b915050620000e4565b50506200045c565b6000604051905090565b600080fd5b600080fd5b600080fd5b6000601f19601f8301169050919050565b7f4e487b7100000000000000000000000000000000000000000000000000000000600052604160045260246000fd5b620001f582620001aa565b810181811067ffffffffffffffff82111715620002175762000216620001bb565b5b80604052505050565b60006200022c62000191565b90506200023a8282620001ea565b919050565b600067ffffffffffffffff8211156200025d576200025c620001bb565b5b602082029050602081019050919050565b600080fd5b6000819050919050565b620002888162000273565b81146200029457600080fd5b50565b600081519050620002a8816200027d565b92915050565b6000620002c5620002bf846200023f565b62000220565b90508083825260208201905060208402830185811115620002eb57620002ea6200026e565b5b835b8181101562000318578062000303888262000297565b845260208401935050602081019050620002ed565b5050509392505050565b600082601f8301126200033a5762000339620001a5565b5b81516200034c848260208601620002ae565b91505092915050565b6000602082840312156200036e576200036d6200019b565b5b600082015167ffffffffffffffff8111156200038f576200038e620001a0565b5b6200039d8482850162000322565b91505092915050565b7f4e487b7100000000000000000000000000000000000000000000000000000000600052603260045260246000fd5b7f4e487b7100000000000000000000000000000000000000000000000000000000600052601160045260246000fd5b6000819050919050565b60006200041b8262000404565b91507fffffffffffffffffffffffffffffffffffffffffffffffffffffffffffffffff821415620004515762000450620003d5565b5b600182019050919050565b610c71806200046c6000396000f3fe608060405234801561001057600080fd5b50600436106100935760003560e01c8063a8f96e4111610066578063a8f96e4114610135578063d28178d714610153578063e0d38faf14610171578063e2ba53f0146101a1578063ff1b636d146101bf57610093565b80630121b93f146100985780633477ee2e146100b45780639e7b8d61146100e6578063a3ec138d14610102575b600080fd5b6100b260048036038101906100ad9190610727565b6101dd565b005b6100ce60048036038101906100c99190610727565b610324565b6040516100dd9392919061077c565b60405180910390f35b61010060048036038101906100fb9190610811565b61035e565b005b61011c60048036038101906101179190610811565b610517565b60405161012c9493929190610859565b60405180910390f35b61013d610554565b60405161014a919061089e565b60405180910390f35b61015b610587565b604051610168919061089e565b60405180910390f35b61018b600480360381019061018691906108e5565b61060f565b604051610198919061089e565b60405180910390f35b6101a9610693565b6040516101b69190610912565b60405180910390f35b6101c76106c6565b6040516101d4919061093c565b60405180910390f35b6000600160003373ffffffffffffffffffffffffffffffffffffffff1673ffffffffffffffffffffffffffffffffffffffff1681526020019081526020016000209050600081600201541415610268576040517f08c379a000000000000000000000000000000000000000000000000000000000815260040161025f906109b4565b60405180910390fd5b8060010160009054906101000a900460ff16156102ba576040517f08c379a00000000000000000000000000000000000000000000000000000000081526004016102b190610a20565b60405180910390fd5b60018160010160006101000a81548160ff0219169083151502179055508181600001819055508060020154600083815481106102f9576102f8610a40565b5b906000526020600020906003020160020160008282546103199190610a9e565b925050819055505050565b6000818154811061033457600080fd5b90600052602060002090600302016000915090508060000154908060010154908060020154905083565b600260009054906101000a900473ffffffffffffffffffffffffffffffffffffffff1673ffffffffffffffffffffffffffffffffffffffff163373ffffffffffffffffffffffffffffffffffffffff16146103ee576040517f08c379a00000000000000000000000000000000000000000000000000000000081526004016103e590610b66565b60405180910390fd5b600160008273ffffffffffffffffffffffffffffffffffffffff1673ffffffffffffffffffffffffffffffffffffffff16815260200190815260200160002060010160009054906101000a900460ff161561047e576040517f08c379a000000000000000000000000000000000000000000000000000000000815260040161047590610bd2565b60405180910390fd5b6000600160008373ffffffffffffffffffffffffffffffffffffffff1673ffffffffffffffffffffffffffffffffffffffff16815260200190815260200160002060020154146104cd57600080fd5b60018060008373ffffffffffffffffffffffffffffffffffffffff1673ffffffffffffffffffffffffffffffffffffffff1681526020019081526020016000206002018190555050565b60016020528060005260406000206000915090508060000154908060010160009054906101000a900460ff16908060020154908060030154905084565b60008061055f610587565b815481106105705761056f610a40565b5b906000526020600020906003020160020154905090565b6000806000905060005b60008054905081101561060a5781600082815481106105b3576105b2610a40565b5b90600052602060002090600302016002015411156105f757600081815481106105df576105de610a40565b5b90600052602060002090600302016002015491508092505b808061060290610bf2565b915050610591565b505090565b600080600090505b60008054905081101561068d57826000828154811061063957610638610a40565b5b906000526020600020906003020160000154141561067a576000818154811061066557610664610a40565b5b90600052602060002090600302016002015491505b808061068590610bf2565b915050610617565b50919050565b60008061069e610587565b815481106106af576106ae610a40565b5b906000526020600020906003020160000154905090565b600260009054906101000a900473ffffffffffffffffffffffffffffffffffffffff1681565b600080fd5b6000819050919050565b610704816106f1565b811461070f57600080fd5b50565b600081359050610721816106fb565b92915050565b60006020828403121561073d5761073c6106ec565b5b600061074b84828501610712565b91505092915050565b6000819050919050565b61076781610754565b82525050565b610776816106f1565b82525050565b6000606082019050610791600083018661075e565b61079e602083018561076d565b6107ab604083018461076d565b949350505050565b600073ffffffffffffffffffffffffffffffffffffffff82169050919050565b60006107de826107b3565b9050919050565b6107ee816107d3565b81146107f957600080fd5b50565b60008135905061080b816107e5565b92915050565b600060208284031215610827576108266106ec565b5b6000610835848285016107fc565b91505092915050565b60008115159050919050565b6108538161083e565b82525050565b600060808201905061086e600083018761076d565b61087b602083018661084a565b610888604083018561076d565b610895606083018461076d565b95945050505050565b60006020820190506108b3600083018461076d565b92915050565b6108c281610754565b81146108cd57600080fd5b50565b6000813590506108df816108b9565b92915050565b6000602082840312156108fb576108fa6106ec565b5b6000610909848285016108d0565b91505092915050565b6000602082019050610927600083018461075e565b92915050565b610936816107d3565b82525050565b6000602082019050610951600083018461092d565b92915050565b600082825260208201905092915050565b7f486173206e6f20726967687420746f20766f7465000000000000000000000000600082015250565b600061099e601483610957565b91506109a982610968565b602082019050919050565b600060208201905081810360008301526109cd81610991565b9050919050565b7f416c726561647920766f74656400000000000000000000000000000000000000600082015250565b6000610a0a600d83610957565b9150610a15826109d4565b602082019050919050565b60006020820190508181036000830152610a39816109fd565b9050919050565b7f4e487b7100000000000000000000000000000000000000000000000000000000600052603260045260246000fd5b7f4e487b7100000000000000000000000000000000000000000000000000000000600052601160045260246000fd5b6000610aa9826106f1565b9150610ab4836106f1565b9250827fffffffffffffffffffffffffffffffffffffffffffffffffffffffffffffffff03821115610ae957610ae8610a6f565b5b828201905092915050565b7f4f6e6c79207468652041646d696e2063616e206769766520616363657373207460008201527f6f20766f74650000000000000000000000000000000000000000000000000000602082015250565b6000610b50602683610957565b9150610b5b82610af4565b604082019050919050565b60006020820190508181036000830152610b7f81610b43565b9050919050565b7f566f74652068617320616c7265616479206265696e6720636173746564000000600082015250565b6000610bbc601d83610957565b9150610bc782610b86565b602082019050919050565b60006020820190508181036000830152610beb81610baf565b9050919050565b6000610bfd826106f1565b91507fffffffffffffffffffffffffffffffffffffffffffffffffffffffffffffffff821415610c3057610c2f610a6f565b5b60018201905091905056fea2646970667358221220d8116fd54c3c7d833587039a194bb09dcf7e20c4e9dbce0372d1f912c1abd9a164736f6c63430008090033",
  "linkReferences": {},
  "deployedLinkReferences": {}
}